8=FIX.4.4|9=68|35=A|34=1|49=SIMPLE|52=20240611-10:15:44.153|56=CLIENT1|98=0|108=30|10=182|8=FIX.4.4|9=140|35=D|34=2|49=SIMPLE|52=20240611-10:15:46.604|56=CLIENT1|1=77777777|11=999999999|40=1|44=88888888888888|54=1|55=AXA|60=20240611-11:15:45.927|10=076|