8=FIX.4.4|9=68|35=A|34=1|49=SIMPLE|52=20240606-16:30:51.113|56=CLIENT1|98=0|108=30|10=183|8=FIX.4.4|9=140|35=D|34=2|49=SIMPLE|52=20240606-16:30:58.656|56=CLIENT1|1=77777777|11=999999999|40=1|44=88888888888888|54=1|55=MHB|60=20240606-17:30:57.782|10=099|8=FIX.4.4|9=56|35=0|34=3|49=SIMPLE|52=20240606-16:31:28.771|56=CLIENT1|10=155|8=FIX.4.4|9=56|35=0|34=4|49=SIMPLE|52=20240606-16:31:58.899|56=CLIENT1|10=170|8=FIX.4.4|9=56|35=0|34=5|49=SIMPLE|52=20240606-16:32:28.988|56=CLIENT1|10=168|8=FIX.4.4|9=56|35=0|34=6|49=SIMPLE|52=20240606-16:32:59.088|56=CLIENT1|10=164|8=FIX.4.4|9=56|35=0|34=7|49=SIMPLE|52=20240606-16:33:29.170|56=CLIENT1|10=155|8=FIX.4.4|9=56|35=0|34=8|49=SIMPLE|52=20240606-16:33:59.264|56=CLIENT1|10=163|8=FIX.4.4|9=56|35=0|34=9|49=SIMPLE|52=20240606-16:34:29.344|56=CLIENT1|10=161|8=FIX.4.4|9=57|35=0|34=10|49=SIMPLE|52=20240606-16:34:59.427|56=CLIENT1|10=207|8=FIX.4.4|9=57|35=0|34=11|49=SIMPLE|52=20240606-16:35:29.523|56=CLIENT1|10=203|8=FIX.4.4|9=57|35=0|34=12|49=SIMPLE|52=20240606-16:35:59.601|56=CLIENT1|10=204|8=FIX.4.4|9=57|35=0|34=13|49=SIMPLE|52=20240606-16:36:29.688|56=CLIENT1|10=218|8=FIX.4.4|9=57|35=0|34=14|49=SIMPLE|52=20240606-16:36:59.769|56=CLIENT1|10=222|8=FIX.4.4|9=57|35=0|34=15|49=SIMPLE|52=20240606-16:37:29.866|56=CLIENT1|10=219|8=FIX.4.4|9=57|35=0|34=16|49=SIMPLE|52=20240606-16:37:59.938|56=CLIENT1|10=223|8=FIX.4.4|9=57|35=0|34=17|49=SIMPLE|52=20240606-16:38:30.025|56=CLIENT1|10=201|8=FIX.4.4|9=57|35=0|34=18|49=SIMPLE|52=20240606-16:39:00.112|56=CLIENT1|10=197|8=FIX.4.4|9=57|35=0|34=19|49=SIMPLE|52=20240606-16:39:30.204|56=CLIENT1|10=203|8=FIX.4.4|9=57|35=0|34=20|49=SIMPLE|52=20240606-16:40:00.276|56=CLIENT1|10=193|8=FIX.4.4|9=57|35=0|34=21|49=SIMPLE|52=20240606-16:40:30.349|56=CLIENT1|10=198|8=FIX.4.4|9=57|35=0|34=22|49=SIMPLE|52=20240606-16:41:00.420|56=CLIENT1|10=187|8=FIX.4.4|9=57|35=0|34=23|49=SIMPLE|52=20240606-16:41:30.508|56=CLIENT1|10=198|8=FIX.4.4|9=57|35=0|34=24|49=SIMPLE|52=20240606-16:42:00.580|56=CLIENT1|10=197|8=FIX.4.4|9=57|35=0|34=25|49=SIMPLE|52=20240606-16:42:30.683|56=CLIENT1|10=205|8=FIX.4.4|9=57|35=0|34=26|49=SIMPLE|52=20240606-16:43:00.861|56=CLIENT1|10=202|8=FIX.4.4|9=57|35=0|34=27|49=SIMPLE|52=20240606-16:43:30.954|56=CLIENT1|10=209|8=FIX.4.4|9=57|35=0|34=28|49=SIMPLE|52=20240606-16:44:01.040|56=CLIENT1|10=195|8=FIX.4.4|9=57|35=0|34=29|49=SIMPLE|52=20240606-16:44:31.155|56=CLIENT1|10=206|8=FIX.4.4|9=57|35=0|34=30|49=SIMPLE|52=20240606-16:45:01.232|56=CLIENT1|10=192|8=FIX.4.4|9=57|35=0|34=31|49=SIMPLE|52=20240606-16:45:31.330|56=CLIENT1|10=195|8=FIX.4.4|9=57|35=0|34=32|49=SIMPLE|52=20240606-16:46:01.411|56=CLIENT1|10=194|8=FIX.4.4|9=57|35=0|34=33|49=SIMPLE|52=20240606-16:46:31.494|56=CLIENT1|10=209|8=FIX.4.4|9=57|35=0|34=34|49=SIMPLE|52=20240606-16:47:01.566|56=CLIENT1|10=208|8=FIX.4.4|9=57|35=0|34=35|49=SIMPLE|52=20240606-16:47:31.666|56=CLIENT1|10=213|